S00D00005350524F332E73726563A0
S11300000C94B5000C94F6020C9424030C94D200C6
S11300100C94D2000C94D2000C94D2000C94D20014
S11300200C94D2000C94D2000C94D2000C94D40002
S11300300C94D2000C94D2000C94AD010C94D20018
S11300400C94D2000C94D2000C94D2000C94D200E4
S11300500C94D2000C94D2000C94D2000C94D200D4
S11300600C94D2000C94D2006E616E00696E66002E
S113007000407A10F35A00A0724E18090010A5D45B
S1130080E80000E87648170000E40B54020000CAB8
S11300909A3B000000E1F5050000809698000000FE
S11300A040420F000000A08601000000102700005D
S11300B00000E803000000006400000000000A00E3
S11300C0000000000100000000002C76D888DC67E6
S11300D04F0823DFC1DFAE59E1B1B796E5E3E4533E
S11300E0C63AE651997696E8E6C28426EB898C9B5B
S11300F062ED407C6FFCEFBC9C9F40F2BAA56FA5FB
S1130100F490055A2AF75C936B6CF9676DC11BFC7C
S1130110E0E40D47FEF520E6B500D0ED902E030097
S1130120943577050080841E080000204E0A0000E4
S113013000C80C333333330F986E12831141EF8DA3
S11301402114893BE65516CFFEE6DB18D1844B38E3
S11301501BF77C1D901DA4BBE424203284725E2214
S11301608100C9F124ECA1E53D2711241FBECFEF86
S1130170D8E0DEBFCDBF11E0A0E0B1E0EEE1FBE1ED
S113018002C005900D92A03BB107D9F722E0A0EB85
S1130190B1E001C01D92A631B207E1F70E943D050E
S11301A00C948D0D0C9400001F920F920FB60F92B9
S11301B01124CF92DF92EF92FF922F933F934F93AC
S11301C05F936F937F938F939F93AF93BF93CF93DB
S11301D0DF93EF93FF930E94A9040E945303EC0161
S11301E0C090C401D090C501E090C601F090C70151
S11301F02CEA35EC47E25CE3688179818A819B8152
S11302000E94A307A70196010E94D3056093C4012D
S11302107093C5018093C6019093C701C090C0013B
S1130220D090C101E090C201F090C3012CEA35ECFA
S113023047E25CE36C817D818E819F810E94A307EC
S1130240A70196010E94D3056093C0017093C10178
S11302508093C2019093C301C090BC01D090BD01B2
S1130260E090BE01F090BF012CEA35EC47E25CE37C
S1130270688579858A859B850E94A307A7019601D5
S11302800E94D3056093BC017093BD018093BE01AD
S11302909093BF01FF91EF91DF91CF91BF91AF9107
S11302A09F918F917F916F915F914F913F912F918A
S11302B0FF90EF90DF90CF900F900FBE0F901F90A4
S11302C01895823061F018F4813031F00BC084301D
S11302D019F0883021F006C01092010103C091E0AA
S11302E0909301012091B2013091B301232B89F441
S11302F095B1982B95B995E39A95F1F7000095B1CE
S11303008095892385B981E090E09093B30180932F
S1130310B2011092B9011092B8010895E091B001B0
S1130320F091B101EE0FFF1FE25EFE4F80810E944B
S113033061018091B0019091B10101969093B10156
S11303408093B0018091B0019091B101049724F0A1
S11303501092B1011092B00108951F920F920FB63E
S11303600F9211242F933F934F935F936F937F9337
S11303708F939F93AF93BF93EF93FF938091B801B3
S11303809091B90101969093B9018093B80180913D
S1130390B8019091B901813797414CF08EEF9FEFEE
S11303A09093B9018093B8010E948E010CC0809192
S11303B0B8019091B901992334F48EEF9FEF909393
S11303C0B9018093B8018091C8019091C901892B2A
S11303D009F453C06091CA017091CB018091CC01A2
S11303E09091CD012DEC3CEC4CEC5DE30E949E071A
S11303F01816C4F46091D0017091D101072E000C3D
S1130400880B990B0E94EE0620E030E040E05FE3A9
S11304100E94A30790580E94B6067093CF01609380
S1130420CE012BC06091CA017091CB018091CC01A7
S11304309091CD012DEC3CEC4CEC5DEB0E943F0621
S11304408823BCF46091D0017091D101072E000C77
S1130450880B990B0E94EE0620E030E040E05FE359
S11304600E94A3070E94B6067093CF016093CE0149
S113047004C01092C9011092C8018091CE019091DC
S1130480CF0118161906ECF42091B4013091B5018E
S11304908091CE019091CF012817390729F49BB19F
S11304A080E489278BB92BC02091B4013091B50128
S11304B08091D0019091D1012817390701F55E9AF6
S11304C01EC08091CE019091CF012091B401309152
S11304D0B5019195819591098217930721F48BB108
S11304E080588BB90CC02091B4013091B501809132
S11304F0D0019091D1012817390709F45F9A20910E
S1130500B4013091B5018091D2019091D3012817A3
S1130510390721F49BB180E289278BB92091B4017A
S11305203091B5018091D0019091D10128173907FC
S113053029F45D9A1092B5011092B4018091B4012E
S11305409091B50101969093B5018093B401FF9108
S1130550EF91BF91AF919F918F917F916F915F9137
S11305604F913F912F910F900FBE0F901F901895B0
S11305709091010180910001981337C082E080932B
S113058001011092B3011092B2018091B6019091D1
S1130590B701873991054CF18091B6019091B7016B
S11305A08037974114F58091B6019091B7018091FD
S11305B0B6019091B7018091BA019091BB0187FF78
S11305C00AC08091BA019091BB0180589093BB01FD
S11305D08093BA0108958091BA019091BB0120E4FF
S11305E082279093BB018093BA0108951F920F92C2
S11305F00FB60F9211242F933F934F935F936F93F2
S11306007F938F939F93AF93BF93EF93FF938091C7
S1130610B8019091B9019093B7018093B6011092FB
S113062000010E94B802FF91EF91BF91AF919F9199
S11306308F917F916F915F914F913F912F910F9087
S11306400FBE0F901F9018951F920F920FB60F9226
S113065011242F933F934F935F936F937F938F93C3
S11306609F93AF93BF93EF93FF938091B8019091C1
S1130670B9019093B7018093B60181E080930001A2
S11306800E94B802FF91EF91BF91AF919F918F911A
S11306907F916F915F914F913F912F910F900FBE7A
S11306A00F901F9018950F931F93CF93DF9300D053
S11306B000D000D0CDB7DEB704ED11E020E030E08B
S11306C046E952E4F80164817581868197810E942C
S11306D0D20520E030E048EC53E40E94D20520E04B
S11306E030E048E454E40E94440628EB3EE14DE146
S11306F051E40E94A307609300007093010080936B
S1130700020090930300C80126960FB6F894DEBF4A
S11307100FBECDBFDF91CF911F910F91089584E05B
S113072092E0089580EE91E00895CF93DF93D62F61
S1130730C42F0E9445058D2F0E9476058C2F0E94A0
S113074076050E946D05DF91CF910895CF92DF92D7
S1130750EF92FF920F931F93CF93DF93C82FD62F5F
S11307607A0169010E9445058D2F0E94760581E07A
S11307708C0F0E944505C70101971816190654F4F9
S1130780E6018C010C0D1D1D0E9488058993C0177C
S1130790D107D1F781E0E81AF108E601CE0DDF1D9B
S11307A00E94930588830E946D05DF91CF911F916C
S11307B00F91FF90EF90DF90CF90089586E291E043
S11307C00E94FF0C40E061E386EA90E00E949503FA
S11307D048E06DE286EA90E00E9495038BE391E0A5
S11307E00E94FF0C0895CF92DF92EF92FF920F9335
S11307F01F93CF93DF9300D000D000D0CDB7DEB7E6
S113080019821A821B821C821D821E829E012F5F06
S11308103F4F46E050E062E386EA90E00E94A60380
S11308206E0182E0C80ED11C04ED11E00F2EF0EE33
S1130830EF2EF1E0FF2EF02DF60131978081F601C5
S1130840608170E0762F6627680F711D072E000CFB
S1130850880B990B0E94EE06F801619371938193C2
S113086091938F01F2E0CF0ED11C0E151F0521F7D5
S113087026960FB6F894DEBF0FBECDBFDF91CF91A1
S11308801F910F91FF90EF90DF90CF90089580E437
S113089091E00E94FF0C4BE166E180ED90E00E9444
S11308A095038BE391E00E94FF0C0895CF92DF92B1
S11308B0EF92FF920F931F93CF93DF9300D000D05A
S11308C000D0CDB7DEB719821A821B821C821D822A
S11308D01E829E012F5F3F4F46E050E06DE180EDA8
S11308E090E00E94A6036E0182E0C80ED11C04E0D1
S11308F012E00F2EF0E1EF2EF2E0FF2EF02DF601C4
S113090080813197608170E0762F6627680F711DB2
S1130910072E000C880B990B0E94EE06F8016193D8
S11309207193819391938F01F2E0CF0ED11C0E1538
S11309301F0529F726960FB6F894DEBF0FBECDBF6C
S1130940DF91CF911F910F91FF90EF90DF90CF90A7
S113095008950E94F3030E945604089585E591E0EA
S11309600E94FF0C40E062E08CE390E00E9495035B
S11309708BE391E00E94FF0C0895CF93DF9388B13D
S113098088B90E943F05C4EDD1E0188219821A8209
S11309901B82A0EEB1E01D921D921D921C92139732
S11309A0E4E0F2E010821182128213821C821D8222
S11309B01E821F8214961D921D921D921C921797DF
S11309C01482158216821782188619861A861B8647
S11309D018961D921D921D921C921B9710861186CB
S11309E0128613860E94DE030E94AE040E9447040E
S11309F0DF91CF9108958AE691E00E94FF0C0E9456
S1130A00B6050E94C7050E94BD040E94B6050E9457
S1130A10C70583E891E00E94FF0C05E911E00E94FC
S1130A20A9040E945303EC010E948F030E949203C5
S1130A308B858F938A858F9389858F9388858F93F0
S1130A408F818F938E818F938D818F938C818F93E0
S1130A508B818F938A818F9389818F9388818F93E0
S1130A601F930F930E94E90C8DB79EB70E960FB695
S1130A70F8949EBF0FBE8DBFD2CF0E94FB0410928C
S1130A80B90088E48093B8000895CF93DF93ECEB2A
S1130A90F0E024EAA9EBB0E0CBEBD0E034E844E9A1
S1130AA0208390819923ECF79C91987F983011F0E2
S1130AB09031B1F78883308390819923ECF79C912E
S1130AC0987F903211F0983529F44083908194FDF9
S1130AD0FDCFE6CFDF91CF91089584E98093BC00E8
S1130AE0ECEBF0E0808184FDFDCF08958093BB00A2
S1130AF084E88093BC00ECEBF0E080818823ECF781
S1130B009091B900987F81E0983209F480E00895CB
S1130B1084EC8093BC00ECEBF0E080818823ECF75C
S1130B208091BB00089584E88093BC00ECEBF0E076
S1130B3080818823ECF78091BB000895CF93C82F60
S1130B408A3019F48DE00E949E05E0ECF0E090817B
S1130B5095FFFDCFC093C600CF910895E0ECF0E07F
S1130B6080818823ECF78091C60008951092C50017
S1130B7087E68093C400E0ECF0E080818D7F808381
S1130B8086E08093C20088E18093C1000895E0E18B
S1130B90F2E080E191E09383828382E091E09183AB
S1130BA0808308955058BB27AA270E94EA050C9415
S1130BB064070E94560738F00E945D0720F039F45C
S1130BC09F3F19F426F40C9453070EF4E095E7FBC9
S1130BD00C944D07E92F0E94750758F3BA17620762
S1130BE073078407950720F079F4A6F50C9497070A
S1130BF00EF4E0950B2EBA2FA02D0B01B901900134
S1130C000C01CA01A0011124FF27591B99F0593F77
S1130C1050F4503E68F11A16F040A22F232F342FBF
S1130C204427585FF3CF469537952795A795F0400D
S1130C305395C9F77EF41F16BA0B620B730B840B22
S1130C40BAF09150A1F0FF0FBB1F661F771F881FDA
S1130C50C2F70EC0BA0F621F731F841F48F4879532
S1130C6077956795B795F7959E3F08F0B0CF939524
S1130C70880F08F09927EE0F9795879508950E949D
S1130C80290708F481E008950E9458060C9464072B
S1130C900E945D0758F00E94560740F029F45F3F18
S1130CA029F00C944D0751110C9498070C94530798
S1130CB00E94750768F39923B1F3552391F3951BAB
S1130CC0550BBB27AA2762177307840738F09F5F69
S1130CD05F4F220F331F441FAA1FA9F335D00E2ED6
S1130CE03AF0E0E832D091505040E695001CCAF743
S1130CF02BD0FE2F29D0660F771F881FBB1F261706
S1130D0037074807AB07B0E809F0BB0B802DBF01DC
S1130D10FF2793585F4F3AF09E3F510578F00C94AB
S1130D204D070C9498075F3FE4F3983ED4F38695FF
S1130D3077956795B795F7959F5FC9F7880F911DCC
S1130D409695879597F90895E1E0660F771F881FB8
S1130D50BB1F621773078407BA0720F0621B730B6B
S1130D60840BBA0BEE1F88F7E09508950E94BD0628
S1130D706894B1110C94980708950E947D0788F037
S1130D809F5798F0B92F9927B751B0F0E1F0660F4B
S1130D90771F881F991F1AF0BA95C9F714C0B1308C
S1130DA091F00E949707B1E008950C949707672F7C
S1130DB0782F8827B85F39F0B93FCCF386957795BB
S1130DC06795B395D9F73EF49095809570956195A4
S1130DD07F4F8F4F9F4F0895E89409C097FB3EF4CF
S1130DE090958095709561957F4F8F4F9F4F992374
S1130DF0A9F0F92F96E9BB279395F69587957795F2
S1130E006795B795F111F8CFFAF4BB0F11F460FFB1
S1130E101BC06F5F7F4F8F4F9F4F16C0882311F009
S1130E2096E911C0772321F09EE8872F762F05C01D
S1130E30662371F096E8862F70E060E02AF09A95B8
S1130E40660F771F881FDAF7880F9695879597F9AD
S1130E500895990F0008550FAA0BE0E8FEEF161647
S1130E601706E807F907C0F012161306E407F5079A
S1130E7098F0621B730B840B950B39F40A2661F00E
S1130E80232B242B252B21F408950A2609F4A140B1
S1130E90A6958FEF811D811D089597F99F6780E8BE
S1130EA070E060E008959FEF80EC089500240A94B8
S1130EB01616170618060906089500240A94121631
S1130EC01306140605060895092E0394000C11F464
S1130ED0882352F0BB0F40F4BF2B11F460FF04C011
S1130EE06F5F7F4F8F4F9F4F089557FD9058440F6A
S1130EF0551F59F05F3F71F04795880F97FB991F75
S1130F0061F09F3F79F08795089512161306140631
S1130F10551FF2CF4695F1DF08C0161617061806BE
S1130F20991FF1CF86957105610508940895E89499
S1130F30BB2766277727CB0197F908950E942907D5
S1130F4008F48FEF08950E94B6070C9464070E947A
S1130F50560738F00E945D0720F0952311F00C9499
S1130F604D070C94530711240C9498070E9475079D
S1130F7070F3959FC1F3950F50E0551F629FF001E8
S1130F80729FBB27F00DB11D639FAA27F00DB11D01
S1130F90AA1F649F6627B00DA11D661F829F22278A
S1130FA0B00DA11D621F739FB00DA11D621F839F11
S1130FB0A00D611D221F749F3327A00D611D231FE7
S1130FC0849F600D211D822F762F6A2F11249F5735
S1130FD050409AF0F1F088234AF0EE0FFF1FBB1F38
S1130FE0661F771F881F91505040A9F79E3F5105F7
S1130FF080F00C944D070C9498075F3FE4F3983EFF
S1131000D4F3869577956795B795F795E7959F5FA0
S1131010C1F7FE2B880F911D9695879597F9089532
S1131020A3E1B0E0E6E1F8E00C948C0B6C014B0119
S11310302A01FC0117821682838181FF43C3AE011A
S11310404F5F5F4F3A01F6019381F40193FD85915F
S113105093FF81914F01882309F430C3853239F419
S113106093FD859193FF81914F01853239F4B60147
S113107090E00E94B10C52012501E5CF10E0F12C63
S113108020E02032A0F48B3269F030F4803259F041
S1131090833269F420612CC08D3239F0803339F405
S11310A0216026C02260246023C0286021C027FD5F
S11310B027C030ED380F3A3078F426FF06C0FAE046
S11310C01F9F300D1124132F13C04AE0F49E300DDE
S11310D01124F32E20620CC08E3221F426FDEEC2C0
S11310E0206406C08C3611F4206802C0883641F4AE
S11310F0F40193FD859193FF81914F018111C1CF3B
S11311009BEB980F933018F42061805E06C09BE936
S1131110980F933008F071C12F7E26FF16E02F73CD
S1131120322E853619F42064322E08C0863621F416
S1131130F22FF0683F2E02C01111115037FE07C084
S11311401C3350F4EE24E394E10E27E00BC0183076
S113115038F027E017E005C027E04CE3E42E02C096
S1131160212FE12C520144E0A40EB11CF201608154
S11311707181828193810E2DA3010E94C30B2C01E6
S1131180098100FF02C003FF07C031FC08C032FE22
S113119009C030E2232E07C02DE2222E04C09BE2B8
S11311A0292E01C0212C802F8C7019F0211068C2C7
S11311B0A8C237FE0FC0E40C04FF04C08A81813347
S11311C009F4EA941E1474F5F8E0FE1578F588E045
S11311D0E82E2CC036FC2AC0812F90E0841595059A
S11311E09CF02CEF42162FEF520674F0432D40680A
S11311F0342E0AC0E2E0F0E0EC0FFD1FE10FF11D18
S11312008081803319F411501111F4CF37FE0EC0D0
S1131210EE24E394E10E812F90E0481659062CF455
S1131220141904C0EE24E39401C010E037FE06C094
S11312301414150434F4C201019605C085E090E04D
S113124002C081E090E021100196112331F0212F9A
S113125030E02F5F3F4F820F931F2F2D30E0821716
S1131260930714F4F81A01C0F12C832D897049F402
S1131270FF2039F0B60180E290E00E94B10CFA94AC
S1131280F7CF222029F0B601822D90E00E94B10C04
S113129033FC09C0FF2039F0B60180E390E00E94DE
S11312A0B10CFA94F7CF37FE5AC0942D852D57FE12
S11312B002C090E080E0292E382E20E030E0A20128
S11312C04E1951095D874C87A201421953095F8762
S11312D04E87612F70E044275527461B570B598BC7
S11312E0488B5FEF2516350649F4B6018EE290E08F
S11312F02A8B3B8B0E94B10C3B892A8942145304EC
S11313006CF04C855D854215530544F4EE85FF85EC
S1131310E20FF31FE60DF71D818101C080E351E068
S1131320251A31082F5F3F4F4889598924163506FD
S11313304CF0B60190E02A8B3B8B0E94B10C2A89B9
S11313403B89CFCF2414350439F49A81963318F4A9
S1131350953311F404FF81E3B60190E04BC08A8118
S1131360813309F00F7EB60190E00E94B10C111197
S113137005C034FC18C085E690E017C0B6018EE2C3
S113138090E00E94B10C82E0EE24E394E80EF301B5
S1131390E80FF11D8081B60190E00E94B10C11505C
S11313A08E2D91F7E6CF85E490E0B6010E94B10C52
S11313B057FC05C04114510439F404FF05C051948D
S11313C0419451088DE201C08BE2B60190E00E9485
S11313D0B10C80E39AE0491651042CF08F5F5AE077
S11313E0451A5108F7CFB60190E00E94B10CB6013E
S11313F0C201C0960E94B10C57C1833631F08337C5
S113140079F0833509F058C021C05201E2E0AE0EF4
S1131410B11CF2018081898301E010E0230114C032
S11314205201F2E0AF0EB11CF2014080518026FF60
S113143003C0612F70E002C06FEF7FEFC2012A8BFF
S11314400E94A60C8C012A892F7715C05201F2E064
S1131450AF0EB11CF2014080518026FF03C0612F02
S113146070E002C06FEF7FEFC2012A8B0E949B0CD9
S11314708C012A892068322E23FD1AC08F2D90E01A
S113148008171907A8F4B60180E290E00E94B10C95
S1131490FA94F4CFF20137FC859137FE81912F0144
S11314A0B60190E00E94B10CF110FA9401501109B8
S11314B00115110579F7F8C0843611F0893659F50C
S11314C0520127FF09C0F4E0AF0EB11CF2016081A4
S11314D07181828193810AC0F2E0AF0EB11CF201E6
S11314E060817181072E000C880B990B2F76322EA8
S11314F097FF09C090958095709561957F4F8F4FA8
S11315009F4F2068322E2AE030E0A3010E942F0D65
S1131510E82EE6183FC0022F853721F40F7E2AE01B
S113152030E01DC0097F8F3691F018F4883559F0EA
S1131530C5C0803719F0883711F0C0C0006104FFBE
S113154009C0046007C024FF08C0066006C028E084
S113155030E005C020E130E002C020E132E0520179
S113156007FF09C0F4E0AF0EB11CF2016081718184
S11315708281938108C0F2E0AF0EB11CF201608158
S1131580718180E090E0A3010E942F0DE82EE618FF
S11315900F77302E36FE0BC0332D3E7FE11650F40C
S11315A034FE0AC032FC08C0332D3E7E05C00E2D29
S11315B0332D03C00E2D01C0012F34FF0CC0FE01DA
S11315C0EE0DF11D8081803311F4397E08C032FFA5
S11315D005C00E5F04C0832F867809F00F5F33FDCA
S11315E013C030FF06C01E2D0F1518F41F0D101B5D
S11315F00F2D0F1568F4B60180E290E03B8B0E943A
S1131600B10C0F5F3B89F5CF0F1510F4F01A01C030
S1131610F12C34FF12C0B60180E390E03B8B0E94B2
S1131620B10C3B8932FF17C031FD03C088E790E05D
S113163002C088E590E0B6010CC0832F867859F08B
S113164031FF02C08BE201C080E237FD8DE2B601BA
S113165090E00E94B10CE11638F4B60180E390E00A
S11316600E94B10C1150F7CFEA94F301EE0DF11D75
S11316708081B60190E00E94B10CE110F5CF14C056
S1131680F4E0FF1558F584E0F81A33FE1EC021106B
S113169026C003FF2AC008E610E0F32DF0713F2EA8
S11316A0F8018491811124C0FF2009F4E5CCB6012E
S11316B080E290E00E94B10CFA94F6CFF6018681A4
S11316C0978126C08FEF9FEF23C0B60180E290E0A0
S11316D00E94B10CFA94F110F8CFD9CFF12CB601D5
S11316E0822D90E00E94B10CD4CF0CE610E0D5CF4F
S11316F031108052B60190E00E94B10C0F5F1F4F71
S1131700CFCF23E02F1510F483E0BECFF12CC1CF4F
S11317106396E2E10C94A80B2F923F924F925F9252
S11317206F927F928F929F92AF92BF92CF92DF92ED
S1131730EF92FF920F931F93CF93DF93CDB7DEB752
S1131740CA1BDB0B0FB6F894DEBF0FBECDBF0994E6
S11317502A88398848885F846E847D848C849B843D
S1131760AA84B984C884DF80EE80FD800C811B814B
S1131770AA81B981CE0FD11D0FB6F894DEBF0FBE7A
S1131780CDBFED010895283008F027E03327DA01B2
S1131790990F311D87FD916000966105710539F43B
S11317A032602E5F3D9330E32A95E1F708959F3F21
S11317B030F080387105610509F03C5F3C5F3D9372
S11317C0913008F08068911DDF93CF931F930F939E
S11317D0FF92EF92192F987F9695E92F96959695FB
S11317E0E90FFF27E653FF4F99273327EE24FF2401
S11317F0A701E70105900894079428F4360FE71E23
S1131800F81E491F511D660F771F881F991F0694E4
S1131810A1F70590079428F4E70EF81E491F561FF8
S1131820C11D770F881F991F661F0694A1F70590A5
S1131830079428F4F80E491F561FC71FD11D880F9F
S1131840991F661F771F0694A1F70590079420F44B
S1131850490F561FC71FD81F990F661F771F881F70
S11318600694A9F784911095177041F0D695C79501
S113187057954795F794E7941A95C1F7E0E7F0E098
S113188068941590159135916591959105907FE235
S11318907395E118F10A430B560BC90BD009C0F735
S11318A0E10CF11E431F561FC91FD01D7EF4703377
S11318B011F48A95E6CFE894015030F0080F0AF449
S11318C00027021708F4202F2395022F7A3328F0DB
S11318D079E37D932A95E9F710C07D932A9589F6DB
S11318E0069497956795379517951794E118F10A1B
S11318F0430B560BC90BD00998F023957E91739531
S11319007A3308F070E37C932013B8F77E9170610A
S11319107D9330F0839571E37D9370E32A95E1F72D
S11319201124EF90FF900F911F91CF91DF91992790
S113193087FD90950895FC01059061507040011059
S1131940D8F7809590958E0F9F1F0895FC016150E4
S1131950704001900110D8F7809590958E0F9F1FCD
S113196008950F931F93CF93DF93FB01238121FDF0
S113197003C08FEF9FEF28C022FF16C04681578116
S1131980248135814217530744F4A081B1819D011C
S11319902F5F3F4F318320838C93268137812F5FC4
S11319A03F4F3783268310C0EB01092F182F008483
S11319B0F185E02D0995892BE1F68E819F810196B1
S11319C09F838E83812F902FDF91CF911F910F9151
S11319D00895A0E0B0E0EFEEFCE00C949C0BAE01A7
S11319E04B5F5F4FFA0161917191AF0180911202D7
S11319F0909113020E941008E2E00C94B80B0F932C
S1131A001F93CF93DF93E0911202F091130223818D
S1131A1021FF1BC08C01D0E0C0E0F80181918F014F
S1131A206091120270911302DB011896ED91FC9102
S1131A301997882331F00995892B79F3DFEFCFEFDC
S1131A40ECCF8AE00995892B19F08FEF9FEF02C044
S1131A508D2F9C2FDF91CF911F910F910895FA0143
S1131A60AA27283051F1203181F1E8946F936E7FD9
S1131A706E5F7F4F8F4F9F4FAF4FB1E03ED0B4E0CA
S1131A803CD0670F781F891F9A1FA11D680F791F0B
S1131A908A1F911DA11D6A0F711D811D911DA11D1C
S1131AA020D009F468943F912AE0269F112430192C
S1131AB0305D3193DEF6CF010895462F4770405DC7
S1131AC04193B3E00FD0C9F7F6CF462F4F70405D76
S1131AD04A3318F0495D31FD4052419302D0A9F7D1
S1131AE0EACFB4E0A6959795879577956795BA95CB
S1131AF0C9F700976105710508959B01AC010A2E91
S1131B0006945795479537952795BA95C9F7620F67
S1111B10731F841F951FA01D0895F894FFCF26
S1131B1E020200000001000000000000AE050000FB
S1131B2E00000002000000009E05000000000100FD
S1131B3E020004000800496E697469616C697A696F
S1131B4E6E67206164783133343500446F6E6500FE
S1131B5E496E697469616C697A696E672069746724
S1131B6E3332303000496E697469616C697A696E1A
S1131B7E6720686D63353834330053746172746949
S1131B8E6E6720496E697469616C697A6174696FF4
S1131B9E6E7300446F6E6520496E697469616C6979
S1131BAE7A696E6700416363656C65726F6D657407
S1131BBE65723A2025662C2025662C2025660A009F
S9030000FC
